:020000040800F2
:10000000286C00205D0200085B2500087D220008A6
:100010005925000869080008292D00080000000083
:100020000000000000000000000000009D0100082A
:10003000DD09000800000000F90100088127000820
:1000400077020008770200087702000877020008AC
:10005000770200087702000877020008770200089C
:10006000770200087702000877020008770200088C
:100070005D0900087702000877020008770200088F
:10008000770200087702000877020008770200086C
:100090006D08000877020008770200087702000860
:1000A000770200087702000877020008770200084C
:1000B0004D28000877020008770200087702000840
:1000C000770200087702000877020008770200082C
:1000D00077020008492C0008770200087702000820
:1000E000770200087702000877020008770200080C
:1000F00077020008770200087702000877020008FC
:1001000077020008770200087702000877020008EB
:1001100077020008770200087702000877020008DB
:1001200077020008770200087702000877020008CB
:1001300077020008770200087702000877020008BB
:1001400079080008770200087702000877020008A3
:1001500077020008770200085F09000877020008AC
:10016000770200087702000877020008770200088B
:1001700077020008770200087702000800000000FC
:100180007702000877020008DFF80CD000F05AFB75
:1001900000480047E9410008286C00202C4B1968F2
:1001A0000868B0E8F04F80F30988BFF36F8F4FF015
:1001B000000080F3118870470000000008480068C4
:1001C000006880F308884FF0000080F3148862B65E
:1001D00061B6BFF34F8FBFF36F8F00DF00BF00BF6B
:1001E00008ED00E0DFF80C00016841F470010160E7
:1001F000704700BF88ED00E0EFF30980BFF36F8F19
:10020000134B1A681EF0100F08BF20ED108A20E96A
:10021000F04F106009B44FF0500080F31188BFF325
:100220004F8FBFF36F8F04F0F5FC4FF0000080F3A9
:10023000118809BC19680868B0E8F04F1EF0100F6B
:1002400008BFB0EC108A80F30988BFF36F8F704746
:1002500058000020EFF305807047000006488047F3
:1002600006480047FEE7FEE7FEE7FEE7FEE7FEE79B
:10027000FEE7FEE7FEE7FEE73128000889010008F7
:100280002DE9F05F0546002092469B4688460646CB
:10029000814640241BE0284641464746224600F05E
:1002A0001BFA53465A46C01A914110D311461846BC
:1002B000224600F002FA2D1A67EB01084F4622464B
:1002C0000120002100F0F9F917EB00094E41201E32
:1002D000A4F10104DFDC484631462A464346BDE826
:1002E000F09F40EA01039B0703D009E008C9121FF1
:1002F00008C0042AFAD203E011F8013B00F8013BE0
:10030000521EF9D27047D2B201E000F8012B491E0B
:10031000FBD270470022F6E710B513460A460446A2
:100320001946FFF7F0FF204610BD2DE9FE4F80462D
:1003300081EA0300C00F0C46009021F0004123F039
:100340000045B8EB0200A94105D24046214690463F
:100350001C460B46024623F00040104347D0270DB1
:10036000C7F30A00C3F30A510290401A01904028D3
:100370006BDAC3F3130040F4801B0098924620B15F
:100380000023D2EB030A63EB0B0B01985946C0F133
:100390004002504600F091F906460D465046594637
:1003A000019A00F0A9F910EB08006141002487EAE6
:1003B000115284EAE7731A4340D0009A62B3019A5B
:1003C000012A4FEA075215DC001B61EB02014FF0D6
:1003D000004202EA0752CDE90042001C41F58011BB
:1003E00032462B4600F0E0F903B0BDE8F08F4046FE
:1003F0002146F9E7001B61EB0201001C41F5801367
:1004000000185B412018A2F5001747EB030140EAF2
:10041000D570B6196D4111E06D084FEA360645EA10
:10042000C0754FEA0752001B61EB0201001C41F549
:10043000801149084FEA30000019514132462B46DD
:1004400003B0BDE8F04F00F0A0B9009801224000D1
:100450000023D0EB020263EBE073009821464FEAE1
:10046000E074B8EB000061EB0401E9E783F00043BE
:100470005BE781F0004158E72DE9FE4F81EA030474
:1004800004F0004421F0004100944FF0000B23F0F1
:10049000004350EA01045ED052EA03045BD0C3F388
:1004A0000A54C1F30A552C44A4F2F3340194A0FB7E
:1004B0000254C1F3130141F48011C3F3130343F455
:1004C000801301FB024400FB034E840A970A44EAAE
:1004D000815447EA8357A4FB076802958D0A05FB00
:1004E00007854FEA932C04FB0C542705029D4FEA25
:1004F000065847EA1637B5EB08056EEB070C870E72
:10050000920E47EA811742EA8312A7FB0201B6EB7B
:100510000B0164EB00042B0D43EA0C335E1844EB33
:100520001C50DA465146E7FB0201C5F313044FEABB
:100530000B3343EA14534FEA0432019C43EA0603A7
:10054000A4F10C040294009CCDE900B400F02CF955
:1005500003B0BDE8F08F00200146F9E72DE9F04D2A
:1005600081EA030404F0004B21F0004514464FF0EB
:10057000000A23F0004150EA050220D054EA0102AB
:100580001DD0C5F30A570246C5F31303C1F3130088
:10059000C1F30A5640F4801543F48013A7EB060814
:1005A000101BD64608F2FD3873EB050002D308F1A4
:1005B000010801E092185B41B8F1000F03DA002056
:1005C0000146BDE8F08D00204FF4801106468446B8
:1005D0000EE0171B73EB050705D3121B63EB050336
:1005E00006434CEA010C49084FEA300092185B417F
:1005F00050EA0107EDD152EA030012D082EA04006A
:1006000083EA0501084305D0101BAB4106D2012245
:10061000002306E000224FF0004302E06FF00102E9
:1006200053101AEB06004CEB085110EB0A0041EB9B
:100630000B01BDE8F04D00F0A8B80EB5C10F80EA7F
:10064000E0700844CA07002140F233438DE80E00F1
:100650000A460B4600F0A8F803B000BD00F00042C7
:1006600030F000400AD0C10D01F56071C0F31600F2
:1006700042EA0151C2084007114370470020014679
:10068000704701F0004330B421F0004150EA01020C
:1006900006D00A0DA2F56072C1F31301002A02DC34
:1006A00030BC00207047440F44EAC104C100E01888
:1006B00030BC00EBC25000F031B8202A04DB203AF5
:1006C00000FA02F1002070479140C2F1200320FAA5
:1006D00003F3194390407047202A04DB203A21FAA3
:1006E00002F00021704721FA02F3D040C2F120024B
:1006F0009140084319467047202A06DBCB17203A61
:1007000041FA02F043EAE07306E041FA02F3D04016
:10071000C2F1200291400843194670470029A8BF42
:100720007047401C490008BF20F00100704710B41A
:10073000B0FA80FC00FA0CF050EA010404BF10BCCF
:10074000704749B1CCF1200421FA04F411FA0CF1FC
:1007500018BF012121430843A3EB0C01CB1D4FEA35
:1007600000614FEA102042BF002010BC704700EB30
:10077000C35010440029A4BF10BC7047401C49005E
:1007800008BF20F0010010BC704710B5141E73F1B3
:10079000000408DA401C41F1000192185B411A4341
:1007A00001D120F0010010BD2DE9F04D92469B468D
:1007B00011B1B1FA81F202E0B0FA80F22032904633
:1007C000FFF77BFF04460F4640EA0A0041EA0B01AF
:1007D00053465A46084313D0114653EA010019D034
:1007E000C8F140025046FFF777FF05460E465046D7
:1007F00059464246FFF761FF084305D0012004E057
:1008000020463946BDE8F08D0020054346EAE076F3
:100810002C4337430A986305E40AA0EB0800002242
:10082000FD0A44EA47540A3002D500200146E9E7B0
:10083000010510196941DDE9084500196941BDE864
:10084000F04DA2E7064C074D06E0E06840F00103DA
:1008500094E8070098471034AC42F6D3FFF798FCB1
:10086000F850000818510008FEE70000014800F0A9
:1008700028BA0000C0000020014800F022BA0000A1
:10088000E800002038B50E4C4FF4007525600025B7
:10089000A560E560082525610A4C050A2570607091
:1008A000080AA070E170100A20716271180AA07124
:1008B000E3716B4622460249034800F0A3F838BDB5
:1008C0009C0500202D000020E800002038B50E4CCB
:1008D00040F2FF1525600025A560E560082525612B
:1008E0000A4C050A25706070080AA070E170100AB1
:1008F00020716271180AA071E3716B4622460249A9
:10090000034800F07FF838BD840500202500002052
:10091000C000002038B50E4C40F2FF1525600025C0
:10092000A560E560082525610A4C050A2570607000
:10093000080AA070E170100A20716271180AA07193
:10094000E3716B4622460249034800F05BF838BD6C
:10095000B405002035000020E800002070477047F3
:1009600001681823CAB2103AB2FBF3F2054B6FF3D9
:100970000901032A9B5CC36500D9091D81650846EE
:10098000704700003850000810B5014600208B6900
:100990008A6A4FF0C07453B1B3F5005F15D072B1DD
:1009A000012A0CD0022A0AD0032A09D104E01AB184
:1009B000012A06D0022A03D1C96AC90100D5012043
:1009C00010BDC96AA142FAD010BD002AF7D0012A91
:1009D000F2D0022AF3D0032AF3D010BD704770473B
:1009E00090F82020012A07D0022A05D0416A41F45C
:1009F0008021416201207047006842690A434261D8
:100A000000207047F0B590F820500468A468012DCC
:100A100005D0022D03D0416A41F4802153E014F047
:100A2000406F01D1E5004BD5C4F30164022C03D91A
:100A3000416A41F4000146E00125A5401D608D6832
:100A40004FF4C0739DB1CE6835434E6845EAC60584
:100A5000066803EB0417F5514FF4C275076805EB00
:100A600004150E697E51097D012905D009E00E8823
:100A7000CD6845EA4655EBE701684E5946F4807665
:100A80004E511179D2F805504FF4C67641EA05254A
:100A9000016806EB04168D511178D2F801204FF44D
:100AA000C47541EA0221026805EB04155151006842
:100AB00003EB0411425842F0010242500020F0BD05
:100AC000416A41F4001141620120F0BD10B590F877
:100AD0002020012A07D0022A05D0416A41F4802152
:100AE0004162012010BD3B48D0F8002242F00102D3
:100AF000C0F80022D0F8002222F47C52C0F8002274
:100B0000D0F800224B6A42EA0322C0F800220A7D94
:100B100002F01F0301229A40D0F81C329343C0F820
:100B20001C32CB69B3B9D0F80C329343C0F80C3205
:100B30008C894B6864F31F434C6900EBC404C4F810
:100B400040320C890B6864F31F434C6900EBC4040A
:100B5000C4F84432CB69012B16D1D0F80C321343C0
:100B6000C0F80C320C884B6864F31F434C6900EBEF
:100B7000C404C4F840320C89CB6864F31F434C6949
:100B800000EBC404C4F844328B69002BD0F8043263
:100B90000ED01343C0F804320B69002BD0F8143286
:100BA00008D01343C0F81432096A012904D008E0C0
:100BB0009343EFE79343F5E7D0F81C121143C0F8D5
:100BC0001C12D0F8001221F00101C0F80012002020
:100BD00010BD000000640040704730B590F8204020
:100BE000012C05D0022C03D0416A41F480215DE044
:100BF0000468002955D02469A40754D04FF4D87450
:100C0000056804EB01142D5915F00405956005687D
:100C10002D594ED0ED08556005682C5904F002049A
:100C2000D4604FF4DA74056804EB01142D5905F013
:100C30000F05156105682D59C5F3072595610568F0
:100C40002C59240C54614FF4DC72046802EB01123D
:100C5000A4581C700468A458240A5C700468A45842
:100C6000240C9C700468A258120EDA704FF4DE72E5
:100C7000046802EB0112A4581C710468A458240AE9
:100C80005C710468A458240C9C710468A258120E6C
:100C9000DA71006881B1016941F020010161002031
:100CA00030BDE468A8E7416A41F4001141620120C7
:100CB00030BD6D0D1560AFE7C16841F02001C16026
:100CC000EDE72DE9F05F0546006800244669D0F89D
:100CD00004908768D0F80CB0D0F810A0D0F8188035
:100CE000F10748D0F90714D001218160B80703D576
:100CF000284600F0BAFA0CE0780702D54FF40064F9
:100D000007E0380702D54FF4805402E0284600F08F
:100D1000ABFAF80516D529684FF480708860B805DD
:100D200003D5284600F0A3FA0CE0780502D544F478
:100D3000005407E0380502D544F4804402E0284618
:100D400000F094FAF80316D529684FF480308860D3
:100D5000B80303D5284600F08CFA0CE0780302D5DE
:100D600044F4004407E0380302D544F4803402E040
:100D7000284600F07DFA300707D55FEACB6004D53E
:100D80002968102044F40074C86070074FF0080709
:100D900007D55FEA0B7004D52868C760284600F0C5
:100DA00099F9B00706D52868C068800702D02846A0
:100DB00000F092F9700607D55FEACA6004D5296889
:100DC000102044F480640861B00607D55FEA0A7019
:100DD00004D528680761284600F016FAF00606D503
:100DE00028680069800702D0284600F00EFAB00398
:100DF00008D55FEAC96005D52968102048602846F3
:100E000000F004FAF00307D55FEA097004D52868FA
:100E10004760284600F02EFA300446D55FEA497054
:100E200040D5F00504D55FEAC87001D044F0010454
:100E3000B00504D55FEA887001D544F0020470055E
:100E400004D55FEA487001D544F00404300529D583
:100E500018F0700F26D008F07000402815D006DC7E
:100E6000102809D020280AD0302816D10AE05028AE
:100E70000ED0602811D10EE044F008040DE044F0DB
:100E800010040AE044F0200407E044F0400404E0C9
:100E900044F0800401E044F480742868816921F002
:100EA00070018161296804204860002C05D0686ABF
:100EB000204368622846FFF78FFEBDE8F09F70B5BB
:100EC000040003D094F8200010B104E0012070BDAC
:100ED000204600F081F82068016821F002010160DD
:100EE00000F024FB0546052604E000F01FFB401B34
:100EF0000A2811D8206840688007F6D42068016865
:100F000041F00101016000F011FB05460BE000F02B
:100F10000DFB401B0A2806D9606A40F4003060626D
:100F200084F82060D2E720684068C007EFD0207EB8
:100F30000128206801683DD021F080010160607EB9
:100F400001282068016838D021F040010160A07EAE
:100F500001282068016833D021F020010160E07E83
:100F60000128206801682ED041F010010160207F27
:100F700001282068016829D021F008010160607F04
:100F800001282068016824D021F004010160D4E91F
:100F900002010843D4E90412114308436168491E61
:100FA00008432168C86100206062012084F82000A5
:100FB000002070BD41F08001C0E741F04001C5E76D
:100FC00041F02001CAE721F01001CFE741F008010C
:100FD000D4E741F00401D9E7F0B587B00446142105
:100FE0006846FFF797F9364B3648DFF8D0E01968C6
:100FF000D4F800C0334A0325022609271030002404
:10100000491CF44522D11960012907D1016841F03A
:1010100000710160006800F000700590106840F0F9
:10102000080010601068CDE9005600F00800CDE916
:10103000047069462448CDE9024500F087F9002292
:101040000521142000F0FEFA142033E0DFF87CE0E4
:10105000F44531D1D0F800C04CF0806CC0F800C02D
:10106000D0F800C001290CF0806CCDF814C01960D4
:1010700007D1016841F000710160006800F0007064
:101080000590106840F002001060106802AB00F09C
:10109000020005904FF44050CDE9000683E8B0000F
:1010A00069460B4800F052F900220521402000F06B
:1010B000C9FA402000F0B8FA07B0F0BD0064004063
:1010C0000000002030380240000C02400068004060
:1010D000000402407047000010B58CB0044603AB1A
:1010E00005AA0021FFF779FD424A21684248914252
:1010F0004BD1059907291AD007DC69B105290FD012
:10110000062912D103A93D480DE0A1F5007105396A
:1011100011D0012909D125E0384803A9A83802E0F7
:10112000364803A9543802F045FC0CB010BD3348D2
:1011300003A95430F7E7B0F84810A0F85010BDF8F4
:101140000C1049BAA0F84810BDF80E1049BAA0F822
:101150004A10BDF8101049BAA0F84C109DF81210B2
:1011600080F84E1030F8541F0181BDF80C1049BAB8
:101170000180BDF80E1049BA4180BDF8101049BA7F
:1011800081809DF812108171CFE71D4A9142CCD128
:101190000599A1F201210529C7D81A4AC9B21170CF
:1011A00001EB410200EB820130F822300B81BDF8E7
:1011B0000C305BBA20F82230BDF80E305BBA4B80A1
:1011C000BDF810305BBA8B809DF812308B7130F80F
:1011D0002200B1F90820801AB0F5805F02DD48894D
:1011E000401E04E010F5805F9FDA4889401C48816A
:1011F0009BE700000064004024050020900E0020C2
:1012000000680040240000207047704770470000CD
:1012100070B5044690F82000012804D0606A40F4BC
:101220000020606218E0022084F820002068016835
:1012300021F00101016000F079F905460EE000BFE0
:1012400000F074F9401B0A2808D9606A40F40030A5
:101250006062052084F82000012070BD206840688D
:10126000C007EDD1606270BD70477047704770472E
:1012700070477047704700002DE9F041044600F0C8
:1012800055F906465CB1002584F83450022084F8F4
:1012900035002068016821F0010101600DE00120A6
:1012A000BDE8F08100F042F9801B052805D9202017
:1012B0006065032084F83500F2E720680068C00705
:1012C000F0D12268116820480140D4E90103184395
:1012D000D4E903363343184363691843A3691843B9
:1012E000E3691843236A18430843616A042903D158
:1012F000D4E90B1319430843106020684069666AFB
:1013000020F0070130460E43012704280CD1A06AC3
:101310000643E06A40B12046FFF736FB20B140208B
:10132000606584F83570BAE7206846612046FFF7AB
:1013300017FB94F85C203F2191408160656584F83B
:1013400035700020ACE700003F8010F02DE9F84F29
:1013500000224FF0010803254FF00F0E0B6808FA2A
:1013600002F42340A3426ED14E68012E05D0022E16
:1013700003D0112E01D0122E12D186684FEA420CF2
:1013800005FA0CF7BE43CF6807FA0CF737438760BE
:101390004668A6430C79C4F3001494403443446077
:1013A000C668570005FA07FC8C6826EA0C06BC40A4
:1013B0003443C4604C68022C01D0122C13D1D408E1
:1013C00000EB8404A346D4F8209054074FEAD46A73
:1013D0000EFA0AF629EA06090E6906FA0AF646EA3C
:1013E0000906CBF8206004680E7924EA0C0406F0A4
:1013F0000306BE40264306604C68E4006FD53B4CB4
:10140000266846F480462660246822F0030604F429
:1014100080440094364C3444A446D4F808489607D7
:10142000360F0EFA06F7BC43324FB84201D10027FF
:101430002EE0314FB84201D1012729E02F4FB842A9
:1014400002D1022724E04AE02D4FB84201D1032700
:101450001EE02C4FB84201D1042719E02A4FB842B0
:1014600001D1052714E0294FB84201D106270FE02A
:10147000274FB84201D107270AE0264FB84201D1D1
:10148000082705E0244FB84201D1092700E00A27C8
:10149000B7402743CCF80878204E34684F689C4307
:1014A000FF0300D51C4334601C4E361D34684F6862
:1014B0009C43BF0300D51C433460184E0836346883
:1014C0004F689C43FF0200D51C433460134E0C361A
:1014D00034684F689C43BF0200D51C433460521CE3
:1014E000102AFFF43BAFBDE8F88F000044380240FB
:1014F00000300140000002400004024000080240A9
:10150000000C02400010024000140240001802408B
:10151000001C02400020024000240240003C014028
:101520000AB1816170470904FBE700000148806847
:1015300070470000140000200248816802781144BE
:1015400081607047140000200B4810B5016841F419
:1015500000710160016841F480610160016841F43B
:1015600080710160032000F08DF8002000F006F883
:1015700000F03EF8002010BD003C024010B50146CE
:1015800088B000221C2000F05DF81C2000F04CF810
:1015900014480024016841F001010160006805A9B8
:1015A00000F001000690684600F018F900F036F9E6
:1015B0000D494000B0FBF1F10C484FF08042491E4C
:1015C000026040F2E732C0E90324C0E9011400F0F0
:1015D0006FFB10B1012008B010BD044800F096FB6D
:1015E000F9E700004038024040420F00E4040020C8
:1015F0000C4882B0016841F480410160006800F449
:10160000804000900748001F016841F08051016050
:101610000068002200F0805000900F21901E02B060
:1016200000F010B844380240002809DB00F01F0227
:10163000012191404009800000F1E020C0F8001134
:1016400070470000F0B40E4B1B680C46C3F3022336
:10165000C3F10705042D00D90425191D072901D25E
:10166000002300E0DB1E012606FA05F1491E214099
:1016700099409E40761E16403143F0BC01F055BBA8
:101680000CED00E0064900F0070208684FF6FF0382
:10169000184040EA0220034A1043086070470000E7
:1016A0000CED00E00000FA052DE9F0470E460500BC
:1016B00065D0DFF81481D8F80000F7B200F00F0011
:1016C000B04207D288F80070D8F8000000F00F0090
:1016D000B04254D128683D4C810712D5400703D54C
:1016E000206840F4E05020602878000703D5206887
:1016F00040F4604020602068A96820F0F0000843B2
:1017000020602878C0072DD0304968680839012842
:1017100012D0022813D0032811D0096889070029A4
:101720002DDA216821F0030101432160FFF7FEFE5D
:10173000814641F2883A0EE009688903EFE70968BB
:101740008901ECE7FFF7F2FEA0EB0901514502D950
:101750000320BDE8F0872068696800F00C00B0EB5A
:10176000810FEFD1D8F80010404601F00F01B142CF
:1017700007D90770006800F00F00B04201D00120C7
:10178000E7E72878400705D52068E96820F4E050AD
:10179000084320602878000706D52068296920F4CE
:1017A000604040EAC100206000F058F82168084A13
:1017B000C1F30311515CC84006490860064800683F
:1017C000FFF7DCFE0020C4E7003C0240083802407E
:1017D0004050000820000020180000200F22026066
:1017E0000C4A136803F003034360136803F0F0032B
:1017F0008360136803F4E053C36012684FF4E0534E
:1018000003EAD20202610448006800F00F00086099
:101810007047000008380240003C02400448054977
:1018200000680968044AC1F38221515CC8407047CE
:1018300020000020083802405050000804480549A4
:1018400000680968044AC1F34231515CC8407047DE
:10185000200000200838024050500008154810B5FC
:10186000006810F00C02144813D01449042A0FD059
:10187000082A0ED10F4C241F2268236802F03F0271
:101880005B0207D52068C0F38810A0FB010106E0C9
:10189000084610BD2168C1F38811A1FB0001002397
:1018A000FEF7EEFC2168C1F30141491C4900B0FB81
:1018B000F1F010BD083802400024F400001BB7000E
:1018C0002DE9F84F04006ED02078DFF83C93C00774
:1018D000A9F104054AD009F104000168C1F38101AE
:1018E000012908D00068C0F3810002280AD1D9F884
:1018F0000000400206D52868800337D560680028BC
:10190000E1D033E06068B0F5803F10D0B0F5A02F93
:10191000286810D020F480302860286820F48020C7
:1019200028606068A8B1FFF701FE06460DE0286850
:1019300040F48030F4E740F480202860F7E700BFEF
:10194000FFF7F4FD801B642873D828688003F7D55F
:101950000CE0FFF7EBFD064605E000BFFFF7E6FDF4
:10196000801B6428F0D828688003F7D42078DFF83B
:101970009C8280074FF0000A3ED5A348001D0168F5
:1019800011F00C0F08D00068C0F3810002280BD1C1
:10199000D9F80000400207D42868800716D5E0680F
:1019A000012800D112E02BE1E068B8B10120C8F8AD
:1019B0000000FFF7BBFD064605E000BFFFF7B6FDE0
:1019C000801B0228C0D828688007F7D528682169BD
:1019D00020F0F80040EAC10028600DE0C8F800A03F
:1019E000FFF7A4FD064604E0FFF7A0FD801B0228D8
:1019F0001FD828688007F7D42078000722D5824EA8
:101A000083486169703671B101210160FFF78EFD75
:101A1000074604E0FFF78AFDC01B022809D830689A
:101A20008007F7D50EE0C0F800A0FFF77FFD07465E
:101A300005E082E0FFF77AFDC01B02287DD8306800
:101A40008007F7D42078400768D5DFF8BCB10027BD
:101A50000BF13C0BDBF80000C0000BD4DBF80010EE
:101A600041F08051CBF80010DBF80000012700F0B6
:101A700080500090674E3068C00510D4306840F444
:101A800080703060FFF752FD009005E0FFF74EFDDB
:101A90000099401A022850D83068C005F6D55A4E31
:101AA000A0686C3601280FD00528306810D020F0CF
:101AB00001003060306820F004003060A068B8B1E8
:101AC000FFF734FD00900FE0306840F00100F4E7CC
:101AD00040F004003060F7E7FFF728FD0099411A55
:101AE00041F28830814266D830688007F4D50EE034
:101AF000FFF71CFD009007E0FFF718FD0099411A61
:101B000041F28830814256D830688007F4D42FB132
:101B1000DBF8001021F08051CBF80010A069C8B3A9
:101B20003949091D0968C1F3810102294AD00228F7
:101B3000504607D0C8F8600000E03CE0FFF7F6FC34
:101B400004463BE04746C8F86000FFF7EFFC064656
:101B500005E000BFFFF7EAFC801B02282BD82868AD
:101B60008001F7D4D4E907010843A16A2A4A490849
:101B700002EB0141626A41EA8211084394F82C1099
:101B800040EA0161C9F8001001203866FFF7CEFC79
:101B9000044606E036E000BFFFF7C8FC001B022841
:101BA00009D828688001F7D52CE000BFFFF7BEFCFC
:101BB000001B022802D90320BDE8F88F28688001A5
:101BC000F4D41FE00128F7D0D9F80000E26900F44E
:101BD0008001914214D1226A00F03F0191420FD15D
:101BE00047F6C071626A0140914209D1A26A00F4CD
:101BF0004031914204D1E16A00F07060884201D026
:101C00000120D9E70020D7E704380240000047420E
:101C1000800E4742007000400000FFFF7047704791
:101C200070B590F83C20012A32D0012480F83C4065
:101C3000022280F83D2003685A689D6822F07006F1
:101C40000A6832435A60134B02689A4214D0B2F1C8
:101C5000804F11D0104B9A420ED0104B9A420BD0AD
:101C60000F4B9A4208D00F4B9A4205D00E4B9A4226
:101C700002D00E4B9A4204D1496825F080031943E3
:101C8000916080F83D40002180F83C10084670BD0E
:101C9000022070BD00000140000400400008004028
:101CA000000C0040000401400040014000180040CA
:101CB00010B5040003D094F83D0010B107E00120F6
:101CC00010BD002084F83C00204600F00CF80220F3
:101CD00084F83D00211D206800F0BEFD012084F83D
:101CE0003D00002010BD7047022180F83D100168C2
:101CF0008A6802F00702062A03D00A6842F001024D
:101D00000A60012180F83D10002070470168CA6810
:101D100042F00102CA600068816801F007010629EB
:101D200003D0016841F00101016000207047704755
:101D300070B50446006801694FF00005C943890782
:101D400015D4C168C943890711D4E91E0161012076
:101D50002077206880698007204602D0FFF7E7FFE0
:101D600004E000F0E3F8204600F078F925772068D9
:101D70000169C943490717D4C168C943490713D446
:101D80006FF004010161022020772068806910F45F
:101D9000407F204602D0FFF7CAFF04E000F0C6F8FB
:101DA000204600F05BF9257720680169C9430907DF
:101DB00016D4C168C943090712D46FF00801016144
:101DC000042020772068C0698007204602D0FFF7F2
:101DD000AEFF04E000F0AAF8204600F03FF92577B6
:101DE00020680169C943C90617D4C168C943C90637
:101DF00013D46FF010010161082020772068C069BA
:101E000010F4407F204602D0FFF791FF04E000F07D
:101E10008DF8204600F022F9257720680169C94332
:101E2000C90708D1C168C943C90704D1891E016126
:101E3000204600F037F920680169C943090609D432
:101E4000C168C943090605D46FF0800101612046CD
:101E5000FFF7E4FE20680169C943490609D4C16857
:101E6000C943490605D46FF040010161204600F0E6
:101E700020F920680169C94389060BD4C168C943A8
:101E8000890607D46FF0200101612046BDE870404B
:101E9000FFF7C5BE70BD000030B587B00446142101
:101EA0006846FEF737FA1C492068884231D11B4842
:101EB0000024016841F480710160016801F48071BF
:101EC0000591016841F0800101600068022500F081
:101ED0008000059001200090CDE90154694610482A
:101EE000CDE90345FFF732FAE8020090CDE901544D
:101EF00069460C48CDE90345FFF728FA0A48FFF781
:101F0000F3FE0821084800F0ABF80C21064800F069
:101F1000A7F807B030BD0000000C00403038024088
:101F200000200240001C024064030020704770B58E
:101F3000044690F83C000D4601280DD0012684F897
:101F40003C60022084F83D0042B1042A18D0082ADF
:101F50002AD00C2A4DD139E0022070BD206800F053
:101F6000EDFC2068816941F0080181612068816988
:101F700021F004018161206881692A69114311E01F
:101F8000206800F00BFD2068816941F400618161E7
:101F90002068816921F480618161206881692A69F2
:101FA00041EA0221816124E0206800F02DFD2068D3
:101FB000C16941F00801C1612068C16921F00401D3
:101FC000C1612068C1692A69114311E0206800F0ED
:101FD0004FFD2068C16941F40061C1612068C16999
:101FE00021F48061C1612068C1692A6941EA022146
:101FF000C16184F83D60002084F83C0070BD10B5DC
:10200000040003D094F83D0010B107E0012010BD9A
:10201000002084F83C00204600F00CF8022084F8F0
:102020003D00211D206800F017FC012084F83D00D0
:10203000002010BD08B500680649884208D106484E
:10204000016841F008010160006800F0080000909C
:1020500008BD0000000C00404038024070470000FE
:1020600010B504460068012200F05AFC0B492068B4
:10207000884202D00A49884203D1416C41F40041B0
:1020800041642068816801F00701062903D00168D6
:1020900041F001010160002010BD0000000001407E
:1020A000000401400068B0F1804F01D1FFF744BA4D
:1020B0007047704770B5040004D094F839000025CB
:1020C00010B106E0012070BD84F83850204600F0C1
:1020D00023F8242084F839002068C16821F40051D5
:1020E000C160204600F0ECFC2068016921F49041B9
:1020F00001612068416921F02A0141612068C168BD
:1021000041F40051C160E563202084F8390084F86F
:102110003A00002070BD00002DE9F04F87B0064660
:1021200014216846FEF7F6F84C4A316800244C4802
:10213000022703254FF040094FF4806A914253D1A2
:10214000474914310A6842F010020A60096801F038
:1021500010010591016841F002010160016801F080
:1021600002010591016841F001010160006802AAC5
:1021700000F0010005908020CDE900074FF007082E
:10218000DFF8E0B082E8300169465846FFF7DEF834
:1021900002AA694682E83001CDE900975846FFF768
:1021A000D5F8324D30482860B806C5E90104C5E9C4
:1021B000034AC0146C61C5E906404FF44030C5E9DC
:1021C00008042846FFF758F808B1FEF708FC356305
:1021D000002205212520AE63FFF734FA2520FFF702
:1021E00023FA07B0BDE8F08F214A9142F9D11C498A
:1021F00010310A6842F000420A60096801F00041AB
:102200000591016841F0100101600068029400F03E
:1022100010000590CDE900570820CDE9035069462C
:102220001448FFF793F8114D1348603528604FF0BC
:1022300020606860C5E90294C5E904A44FF48030C9
:10224000AC61C5E9074028466C62FFF715F808B194
:10225000FEF7C5FB7563AE63C3E7000000100140E5
:102260003038024000040240406402402404002050
:10227000007C00400010024010600240FEE70000B9
:102280000F4810B50D4901600321416000214FF452
:1022900010228160C0E903124FF4001242610176FE
:1022A00041768176C17601774177FEF708FE0028F6
:1022B00003D0BDE81040FEF792BB10BD00640040A3
:1022C000C00000200F4810B50D4901600321416096
:1022D00000214FF410228160C0E903124FF4001274
:1022E0004261017641768176C17601774177FEF7CA
:1022F000E6FD002803D0BDE81040FEF770BB10BD1E
:1023000000680040E8000020154808B5016841F465
:1023100000110160016801F400110091016841F4AD
:10232000800101600068002200F480000090052117
:102330000C20FFF787F90C20FFF776F90022052122
:102340004620FFF77FF94620FFF76EF900220521AE
:102350000B20FFF777F9BDE808400B20FFF764B9C1
:102360003038024010B5A4B01C221C496846FDF765
:10237000B8FF0021684601F0DFFF194C17491C2205
:10238000E0601C3107A8FDF7ACFF002107A801F0B1
:10239000D3FF124920601C2238310EA8FDF7A1FF9F
:1023A00000210EA801F0C8FF0C4920601C22543106
:1023B00015A8FDF796FF002115A801F0BDFF0749FC
:1023C00060601C2270311CA8FDF78BFF00211CA847
:1023D00001F0B2FFA06024B010BD0000AC4F0008B7
:1023E000040000201D4808B5016841F002010160A9
:1023F000016801F002010091016841F001010160F2
:10240000016801F001010091016841F008010160DB
:10241000016801F008010091016841F004010160C8
:10242000016801F004010091016841F480710160CC
:10243000016801F480710091016841F08001016040
:10244000016801F080010091016841F01001016014
:10245000006800F01000009008BD00003038024015
:1024600010B58AB0002407941C2168460894FDF733
:1024700051FF1A4818490160A721C0E9011442F22E
:102480000F71C0E903148461FFF7B9FD08B1FEF7CD
:10249000A6FA079407A911480894FFF7C1FB08B1F1
:1024A000FEF79DFA6020CDE90004029408226946F7
:1024B0000A480494FFF73BFD08B1FEF790FA0C229E
:1024C00069460648FFF733FD08B1FEF788FA03486E
:1024D000FFF7E2FC0AB010BD000C004064030020CE
:1024E0000C4810B50A4901604FF4E1314160002108
:1024F00081600C22C160C0E904128161C161FFF7F3
:10250000D9FD002803D0BDE81040FEF768BA10BD21
:10251000007C0040E40300200D4810B50B49016029
:102520000C49416000214FF480628160C0E90312D0
:102530000C22C0E90521C161FFF7BCFD002803D0D2
:10254000BDE81040FEF74BBA10BD0000001001407E
:10255000A4030020A0860100FEE77047A0B1D0EDE3
:10256000101AC0ED111A90ED0F1A80ED101AC0ED7F
:10257000060A80ED070A30EEC00A80ED0F0A0178E6
:1025800029B101293BD078E09FED3D0A7047D0ED9D
:10259000010A60EE801AC0ED091AD0ED0A0A90ED2A
:1025A000022A42EE000A30EE410AC0ED0A0A90ED1E
:1025B0000D2A80ED0E2A90ED0C2A80ED0D2A80ED7B
:1025C0000C0A90ED031A21EE001A80ED0B1A90ED23
:1025D000050AF4EEC00AF1EE10FA09DCB1EE400A89
:1025E000F4EEC00AF1EE10FA02D390ED0A0A01E00F
:1025F00080ED0A0A31EE800A30EE010A2BE070EE1F
:10260000410A90ED012A20EE822A80ED092AD0EDC0
:10261000020A60EE800AC0ED0A0AD0ED0D2A72EEC1
:10262000200AC0ED0E2AD0ED0C2AC0ED0D2AF0EEE6
:10263000002A01EE620A30EE210A80ED0C0A90EDCC
:10264000031A21EE000A80ED0B0A30EE800AD0ED6D
:10265000080A30EE200A80ED080AD0ED040AB4EE34
:10266000E00AF1EE10FA06DCF1EE600AB4EEE00AE0
:10267000F1EE10FA01D2C0ED080A90ED080A704799
:1026800000000000002828D0002A26D0017092ED1A
:10269000001A80ED011A92ED011A80ED021A92EDF6
:1026A000021A80ED031A80ED040A9FED0C0AC0EDBA
:1026B000050A80ED0E0A80ED0D0A80ED0C0A80ED12
:1026C000080A80ED0B0A80ED0A0A80ED090A80ED08
:1026D000110A80ED100A80ED0F0A7047000000001B
:1026E00010B5244C04F5AE70D4ED0A0A94ED0B0A33
:1026F000FFF734FFBDEEC00A10EE100AA084D4ED3F
:10270000030A94ED040A04F5D270FFF727FFBDEE2B
:10271000C00A10EE100A2081B4F9240000EE100A5D
:10272000206AF8EEC00AB0F9020000EE100A04F1C7
:102730003C00B8EEC00AFFF711FFBDEEC00A10EE74
:10274000100A2087B4F9080000EE100A6068F8EE5D
:10275000C00AB0F9020000EE100A04F18400B8EEDD
:10276000C00AFFF7FBFEBDEEC00A10EE100AA08300
:1027700010BD0000700A0020012001F0D1FDFBE730
:1027800010B5502080F31188BFF34F8FBFF36F8FC8
:1027900002F046FB18B104494FF080500860002059
:1027A00080F3118810BD000004ED00E030B593B057
:1027B00030216846FDF7AEFD14210CA8FDF7AAFDF7
:1027C00019480025016841F080510160006800F05F
:1027D000805011901548016841F440410160006843
:1027E000022400F440401190012000900004019068
:1027F0008001CDE9064006200890A820CDE9090413
:1028000004200B906846FFF75BF80CA90F2081E8C5
:1028100031004FF4A0500F90E002109005210CA859
:10282000FEF742FF13B030BD403802400070004058
:102830000548016841F47001016003494FF00060F0
:10284000803908607047000088ED00E00148FFF71C
:102850006FBA0000E4040020F0B50268254C264D54
:10286000264E274F274B4FF0804CA04209D06045A1
:1028700007D0A84205D0B04203D0B84201D0984258
:1028800004D122F0700E4A6842EA0E02A0421BD028
:10289000604519D0A84217D0B04215D0B84213D025
:1028A000984211D0184DA8420ED0184DA8420BD016
:1028B000174DA84208D0174DA84205D0164DA84282
:1028C00002D0164DA84203D122F44075CA682A43AB
:1028D0004D6922F080022A4302608A68C2620A6857
:1028E0008262A04201D0984201D1096901630121AD
:1028F0004161F0BD000001400004004000080040BC
:10290000000C004000040140004001400044014030
:102910000048014000180040001C0040002000401A
:1029200010B501F01F030121046A99408C43046231
:10293000016A9A401143016210BD0000F0B5026ABD
:1029400022F001020262036A42688469124E24F096
:1029500073050C682C4323F002058B682B430D4D47
:10296000A84201D0B04205D123F00807CB683B4311
:1029700023F00403A84201D0B04205D14D6922F4EE
:10298000407215438A692A43426084614968416301
:102990000362F0BD0000014000040140F0B5026A8E
:1029A00022F010020262026A436884690D6824F40E
:1029B000E64444EA05248D6822F0200242EA05122A
:1029C0000F4D104EA84201D0B04206D1CF6822F080
:1029D000800242EA071222F04002A84201D0B0422F
:1029E00007D14D6923F4406343EA85038D6943EAC7
:1029F000850343608461496881630262F0BD000021
:102A00000000014000040140F0B5026A22F4807227
:102A10000262026A4368C46922F4007224F07305FA
:102A20000C68124E2C438D6842EA05220E4DA842D6
:102A300001D0B04206D1CF6822F4006242EA0722F8
:102A400022F48062A84201D0B04207D14D6923F43C
:102A5000405343EA05138D6943EA05134360C4619B
:102A60004968C1630262F0BD0000014000040140FA
:102A700030B5026A22F480520262046A4268C36975
:102A80000D6823F4E64343EA05238D6824F40054DB
:102A900044EA0534084DA84202D0084DA84204D1AA
:102AA0004D6922F4804242EA85124260C36149685E
:102AB0000164046230BD00000000014000040140D8
:102AC0002DE9F041044600680169E26821F44051B3
:102AD000114301612169A068E269084361691143FA
:102AE00008432168CA6849F20C639A430243CA60EA
:102AF00020684169A26921F4407111434161E06994
:102B0000192764253226B0F5004F354A354920682B
:102B10004FF0000806D0884201D0904236D1FEF72F
:102B20008DFE35E0884201D0904202D1FEF786FE4C
:102B300001E0FEF773FE61684A18A0FB070148EB4D
:102B40000803FDF79DFB0146B0FBF5F00201B1FB68
:102B5000F5F06FF01803584301EB800006EBC0005E
:102B6000B0FBF5F000F0F80002EB4002B1FBF5F02D
:102B7000584301EB800006EBC000B0FBF5F000F01D
:102B80000700216810448860BDE8F081FEF746FE2A
:102B900061688B0F8A00A0FB0701FDF771FB0146FE
:102BA000B0FBF5F06FF01802504301EB800006EB2C
:102BB0000010B0FBF5F000F0F002B1FBF5F002EB15
:102BC0000012B1FBF5F06FF01803584301EB8000E1
:102BD00006EB0010B0FBF5F000F00F00D1E70000AD
:102BE000001401400010014030B5144B1C686569A9
:102BF00045F0400565611B68DC6844F01004DC604A
:102C00000F4B1C68256825F0010525601C682568A8
:102C1000ED07F7D11D680B4CAC601C68E0601868CC
:102C20000161186842601868016841F48021016000
:102C30001868016841F00101016030BDA403002063
:102C4000240400200410014038B52D4800680168B4
:102C5000890603D501684068009038BD2949096894
:102C6000C906FAD501684068274A009010680168D3
:102C70004FF024030C032549046824F00104046088
:102C80001DD410684468C4F12404A4B20C804360CD
:102C90001068016841F4002101601068016841F08A
:102CA00001010160122CD8D1194901F1160001F07F
:102CB000B9FD002000F0FAFD154816301CE014683C
:102CC0006068C0F1240080B20880636011498B6A9B
:102CD00023F400238B6211680A6842F001020A6043
:102CE0001228BAD10A4901F13A00044601F09AFDCE
:102CF000002000F0DBFD2046BDE8384001F0ECBDCF
:102D0000A403002000100140240400203E00002005
:102D1000360900200060024002492422A1F124006B
:102D2000FFF762BF70090020FEE70907090E0028BF
:102D300004DB00F1E02080F80014704700F00F0081
:102D400000F1E02080F8141D704702E008C8121F4F
:102D500008C1002AFAD170477047002001E001C184
:102D6000121F002AFBD1704700B58BB00020012153
:102D7000CDE9060108910090019002900390059022
:102D8000049069460C48FDF7A1FE0B48FEF740FA97
:102D900002210948FDF724FE0E200990059069469E
:102DA0000648FDF793FE0548FEF732FA0221034874
:102DB000FDF716FE0BB000BDC0000020E8000020AB
:102DC00030B587B014460091002101910291CDE900
:102DD0000313054601236946FDF714FE60B1022383
:102DE000224669462846FDF70DFE28B104232246F7
:102DF00069462846FDF706FE07B0002030BD0000FA
:102E000030B400282ED000292CD0002A2AD0002B44
:102E100028D01A4C24783CB3012C2CD0022C21D180
:102E20001C68B4F9024004EB8404640000EE104A0C
:102E30006FF00904B8EEC00A80ED000A1868008837
:102E400010FB04F000EE100AB8EEC00A81ED000A93
:102E50001868808810FB04F000EE100AB8EEC00A73
:102E600082ED000A30BC70479FED050A80ED000A34
:102E700081ED000AF4E730BC00F0A2B93D0000206B
:102E80000000000030B5002816D00168012402229D
:102E90008B7A0E49032B10D00025022B0FD0012B6B
:102EA00010D0097861B101290AD002290BD0032979
:102EB00006D0042900D1057130BD0C7000E00D7002
:102EC000027130BD0A70047130BD00003D00002069
:102ED0007FB504469FED4B0A0020009001900290C0
:102EE0000146039004F55370D0EC030AB1EE602A5A
:102EF00072EE412A9FED442A684641EE822ACDEDCA
:102F0000002A70EEC12A41EE822ACDED012A70EE30
:102F1000812A71EE600A41EE822A41EE820ACDEDED
:102F2000022ACDED030A2279012A11D100EB810298
:102F300001EB410392ED000A04EBC303491CBDEE13
:102F4000C00AC9B2042910EE102A9A83EED37FBDBD
:102F500000EB8102D2ED000A01EB410204EBC20258
:102F6000C2ED050AF0EEE00AB4EEE00AF1EE10FA66
:102F700001D2B0EE600A491CC9B20429E8D310EEB0
:102F8000100AB0F1814F13DDB1EE001A5FF00000BE
:102F9000C1EE000A00EB400104EBC101401C91EDC1
:102FA000050AC0B2042820EE200A81ED050AF1D3FB
:102FB0005FF0000505EB450004EBC000D0ED050A0D
:102FC00090ED040A05EBC50004EBC0006830FFF784
:102FD000C5FA6D1CEDB2042DECD3002000EBC0014E
:102FE00004EBC10100EB400291ED220A04EBC202A6
:102FF000401CBDEEC00AC0B2042810EE101A918326
:10300000ECD37FBD00000000713DCA3E002850D0C7
:1030100000219FED280A9FED281A00BF01EB410215
:1030200000EBC2029368B3F9023000EE903A01EB74
:10303000C10300EBC303F8EEE00A491CC9B204293E
:1030400060EE800AC2ED040AD3ED260A60EE810A22
:10305000C2ED030AE2D390ED0A1A90ED042A90ED36
:10306000100A71EE420AB1EE422A32EE411A70EEB7
:10307000801AD0ED160A31EE002A31EE400A71EEC8
:10308000E02AF5EE001A32EE202A30EE600ADFED7B
:103090000B0A62EEA12A62EE211A20EE200ADFED71
:1030A000080AC0EDD02AC0EDD11A80EE201A80EDBA
:1030B000D21A7047AF57DC3900007A439318243F87
:1030C000713DCA3E70B504002DED028B6AD000F050
:1030D0009BFF206001209FED358ADFED358A20714E
:1030E0000025284600F072FF05EB450104EBC10105
:1030F000F0EE480A886005EBC50004EBC00606F157
:103100006800B0EE680A2B4A0021FFF7BBFA294A93
:1031100006F5E870F0EE000AB1EE000A1832002160
:10312000FFF7B0FA6D1CEDB2042DDAD3214ADFEDC2
:10313000220AB1EE080A0C32002104F5C470FFF730
:10314000A1FA9FED1E8A1B4904F53C700C39B0EEC4
:10315000480A00F00EFF1749B0EE480A083904F596
:10316000407000F006FF1349B0EE480A091F04F54D
:10317000447000F0FEFEB0EE040A84EDCC0AB8EE16
:10318000040A84EDCD0AB0EE000A84EDCE0AB8EE52
:10319000000A84EDCF0A2046BDEC028BBDE87040EA
:1031A000FFF734BFBDEC028B70BD000000606A46C3
:1031B00000007A4664500008CDCC4C3E6F12833B31
:1031C00070B51C462DED028B154600283AD000291B
:1031D00038D0002D36D0002C34D01A4600F042F8FA
:1031E0002068DFED1A0AB0F90410B0F90C0000EE07
:1031F000101AB8EEC00A20EE208A58B1FDF71DFA69
:103200009FED131B53EC112BFDF7A8F9FDF739FACD
:1032100008EE100A04F53C70B0EE480A00F082FE99
:1032200018EE100A0C49884208DA18EE100A0B4909
:10323000884203D29FED0A0A84EDC90A94EDBD0AC3
:1032400085ED000ABDEC028B70BD00000AD7233C5F
:10325000000000000000144090C2753D90C275BD92
:103260000000000070B514002DED028B0D460646DF
:103270006BD0002E69D0002D67D02268B2F9021001
:1032800001F10A00152800D20021B2F9000000F176
:103290000A03152B00D2002000EE101ADFED2C0AD5
:1032A000B8EEC00A60EE208A00EE100ADFED290AAF
:1032B000908AB8EEC00AC10720EE208A9FED260A48
:1032C00002D0D4EDCC0A03E0810703D5D4EDCD0ABA
:1032D00060EE808A9FED210A410702D5D4EDCE0A27
:1032E00003E0000703D5D4EDCF0A20EE808AB0EECC
:1032F000680A04F5407000F015FEB0EE480A04F5C7
:10330000447000F00FFE18EE900A15499FED150A63
:10331000884206DA18EE900A1349884201D284EDF9
:10332000C10A18EE100A1149884206DA18EE100A8E
:103330000F49884201D284EDC50A94EDC10A86ED99
:10334000000A94EDC50A85ED000ABDEC028B70BD44
:10335000A69BC43B0AD7A3BBCDCC4C3FCDCCCC3E27
:1033600090C2753D0000000090C275BDCCCC4C3DB4
:10337000CCCC4CBD10B504002DED028B84B022D016
:1033800003469FED1F8A02AA8DED008A8DED018A0A
:103390008DED028A01A96846FFF732FD20790228E7
:1033A00015D001280FD19DED000A84EDD30A9DEDC3
:1033B000010A84EDD40A9DED020A84EDD50A84ED5C
:1033C000C18A84EDC58A04B0BDEC028B10BD9DEDB1
:1033D000020A84EDD50A94EDCC1AD4EDCD0A9DED08
:1033E000000A00F0E3FD84EDD30A94EDCE1AD4ED8B
:1033F000CF0A9DED010A00F0D9FD84EDD40AE2E781
:10340000000000004FF47A7001F0A0FB1B48FFF7AA
:1034100059FE1A48FFF736FD1848FFF7F7FD174821
:10342000FFF7A8FF1548FFF753FD012001F078FAD8
:1034300058B1022001F074FA38B1032001F070FA9B
:1034400018B1042001F06CFA98B9002001F068FA74
:1034500020B100231A461946184608E00748B0F97B
:103460006430B0F94C20B0F93410B0F91C00FDF70D
:1034700009FA042001F06AFBCBE70000CC0500202C
:103480001CB51144FF228DF800208DF801208DF825
:1034900004208DF802208DF805208DF803208DF88A
:1034A0000620FB228DF8072089B208236A46FFF721
:1034B00087FC1CBD104810B590F90300012806D008
:1034C000022807D003280FD0042808D110E00B49A8
:1034D0000B4802E009490A48543100F00FFABDE8F0
:1034E00010400A2001F032BB04490548A831F4E736
:1034F00002490348FC31F0E750000020E80D0020AD
:10350000C0000020154810B590F90320012114488F
:10351000012A06D0022A08D0032A12D0042A0BD18D
:1035200015E041700E490F4804E080F855100C4931
:103530000C48543100F024FABDE810400A2001F094
:1035400005BB80F8A91006490648A831F2E780F8C3
:10355000FD1003490348FC31ECE700005000002057
:10356000E80D0020C00000202DE9F0411549144C61
:10357000012001F15406E07001F1A80501F1FC07FA
:1035800094F90300012806D0022806D0032813D09E
:10359000042806D112E00B4900E031460A4800F049
:1035A000C7F90A2001F0D2FAE078401C40B2E0707E
:1035B0000528E5DBBDE8F0812946EFE73946EDE770
:1035C00050000020E80D0020C00000202DED068BEB
:1035D00045F2F05001F0BAFA00F034FA00F014FDB0
:1035E0009A4D4FF00109686085F80390FFF78AFF54
:1035F000E878401C40B2E8700528F7DBF0EE00AA3E
:10360000F8EE008A9FED929A9FED92AA924C9FED60
:10361000938ADFED939ADFF84CA24FF0000800BFC9
:1036200094ED320A012784ED3A0A94ED470A84EDBD
:103630004F0A6868C07A01281FD14E4685F803906A
:10364000FFF738FFE878401C40B2E8700528F7DB48
:1036500085F80360FFF756FFE878401C40B2E87039
:103660000528F7DB94ED320A84ED3A0A94ED470A17
:1036700084ED4F0AAE7085F801806868808AC104C5
:103680002DD5410602D5B0EE080A03E041070AD560
:10369000B8EE080A84ED110A84ED108A84ED138ACD
:1036A00084ED260A14E0C10708D0C4ED11AA84ED08
:1036B000108A84ED138AC4ED268A09E080070ED5AE
:1036C000C4ED118A84ED108A84ED138AC4ED26AA14
:1036D00084ED258A84ED288A85F8018015E06878D4
:1036E00098B984ED118A94ED080A84ED100AB1EEC0
:1036F000040A84ED130A84ED268AD4ED1D0AC4ED74
:10370000250A84ED280A85F80190FFF72DFF6868E7
:10371000808AC10468D501061ED594ED3A0A524943
:1037200030EE0A0A10EE100A84ED3A0A884207DDEC
:103730009FED4E0A84ED3A0A02E000BFFFF714FF46
:10374000D4ED3A0A94ED320A70EEC90AB4EEE00AFA
:10375000F1EE10FAF2D31EE0000720D594ED3A0AFC
:10376000434930EE4A0A10EE100A84ED3A0A8842C4
:1037700006D99FED400A84ED3A0A01E0FFF7F4FE16
:10378000D4ED3A0A94ED320A70EE890AB4EEE00AFA
:10379000F1EE10FAF2DC6868808AC00424D568680B
:1037A000808AC1050FD594ED4F0A334930EE0A0ADD
:1037B00010EE100A84ED4F0A884213DD9FED2F0AA8
:1037C00084ED4F0A0EE080050ED594ED4F0A30EEE1
:1037D0004A0A84ED4F0AB5EEC00AF1EE10FA01D2A2
:1037E00084ED4F8AFFF7C0FE9AF800005646012884
:1037F00007D19FED230A84ED3A0AC4ED4F9AFFF7F3
:10380000B3FE3078022805D184ED3A8AC4ED4F9A90
:10381000FFF7AAFE86F800806868807C68B1287887
:1038200090B1002028700A2000F07AFD6868807C42
:103830000028F8D1287800F0CDFC012001F086F9AD
:10384000002F7FF4F6AEEBE60120EBE750000020FE
:103850000AD7A33CCDCCCC3DE80D002000000000F1
:103860006666C63F40000020D7A3F03ED7A3F03ED7
:103870000AD7C3BF0AD7C3BF6666464066664640DE
:103880008FC2F5BE064801680648B1FBF0F2064853
:1038900002704FF47A72B1FBF2F1416070470000A0
:1038A0002000002040420F00B800002000EBC001C3
:1038B00010B5114800EB81042068606001F0AAFA9D
:1038C0002060E17C4A0603D521F04001E174E0600C
:1038D000A06958B1804748B1E07C40F0A000E07496
:1038E000206A002806D0BDE810400047E07C20F0A8
:1038F0008000E07410BD00005C0C002091F93C20B9
:1039000052B1012A0DD0022A11D191F900105FEABB
:10391000022289B2FFF7B4BD91F90010002289B2EA
:10392000F8E791F900104FF4807289B2F2E770471E
:1039300091F93C2052B1012A17D0022A1ED191EDF3
:10394000110A91F9001089B200F0D4BF91ED122A4A
:10395000D1ED141A91ED131AD1ED110A91ED100A5F
:1039600091F9001089B200F065BCD1ED110A91ED1A
:10397000100A91F9001089B200F008BD70470000EC
:1039800091F93C2052B1012A0DD0022A11D191F9AE
:1039900000105FEA022289B200F0B4B891F9001079
:1039A000002289B2F8E791F900104FF4807289B2D1
:1039B000F2E7704710B5024608780B4600F00F009A
:1039C00050600878F2EE090A00099060B1F8010031
:1039D000BAEE090A40BAD060C9781C79090141EAF7
:1039E000141111611C79597904F00F0441EA042182
:1039F0005161102100F0D2FF82ED080A0C21F3EE94
:103A00000E0ABBEE0E0A106900F0C8FF82ED090A2B
:103A10000C21F2EE040ABAEE040A506900F0BEFF6F
:103A200082ED0A0A987900EE100AB8EE400A82ED9B
:103A30000D0AD87900EE100AB8EE400A82ED0E0A9F
:103A400010BD000010B554212C48FCF763FC2B4836
:103A500054215430FCF75EFC28485421A830FCF770
:103A600059FC26485421FC30FCF754FC2348012122
:103A7000002201709FED220A80F83C2080ED100AA0
:103A800080ED110A80ED120A80ED130AF7EE000AAC
:103A9000C0ED140A022380F8543080F8902080EDA5
:103AA000250A80ED260A80ED270A80ED280AC0ED60
:103AB000290A032280F8A82080F8E41090ED321A39
:103AC000042280ED3A1AB2EE041A80ED3B1A80ED22
:103AD0003C0A80ED3D0AC0ED3E0A80F8FC2080F8EB
:103AE0003811D0ED470AC0ED4F0A80ED501A80ED35
:103AF000510A80ED520A80ED530A10BDE80D0020F6
:103B0000000000001CB51144FF228DF800208DF844
:103B100001208DF804208DF802208DF805208DF805
:103B200003208DF80620FC228DF8072089B2082397
:103B30006A46FFF745F91CBD70B504462DED048BB0
:103B400000F062FA2060042000F056FA6060052060
:103B500000F052FA9FED209ADFED209A9FED208A27
:103B6000DFED208A0026206206EBC60004EBC005CC
:103B700005F13C00F0EE480AB0EE680A1A4A00214E
:103B8000FEF780FD184A05F5AE70F0EE490AB0EE7A
:103B9000690A0C320021FEF775FD761C022EE3DB6C
:103BA0005FF0020505EBC5000F4A04EBC000F0EE24
:103BB000480AB0EE680A183200213C30FEF762FD78
:103BC0006D1C042DEEDB616800204881216A48816C
:103BD000BDEC048B70BD00000000C8430080BB44F6
:103BE0000000FA4400007A46985000082DED068B3C
:103BF000642000F095FB9F48FFF79EFFDFED9EAA33
:103C00009E4FB2EE0B9ABAEE0BAADFED9D9A9D4D38
:103C1000DFF87482974C40F2E2494FF0FA0A00BF95
:103C200000F040F9FDF782FCE968401A46282AD9DD
:103C30002668B6F90800FCF700FD9FED941B53ECD5
:103C4000112BFCF719FC41EC180BA868FCF706FDDA
:103C500053EC182BFCF769FBFCF713FD00EE100A80
:103C600085ED020AB08A41060AD5010602D530EE7A
:103C70002A0A03E0800403D530EE6A0A85ED020AC1
:103C8000FDF754FCE860A868B84202DC00EE100AB8
:103C900003E09FED800A85ED020AB5EEC00AF1EE61
:103CA00010FA01D2C5ED029A2068808AC1061DD59E
:103CB00080061BD585ED029A84ED0AAA84ED039A4D
:103CC0005FF0000600F0EEF8FEF70AFD0023B4F9FD
:103CD0003810B4F91C001A46FCF71CFE0A2000F04C
:103CE0001FFB761C962EEDD3012028702068C07C27
:103CF000D0B185ED029A84ED0AAA84ED039A0026DC
:103D000000F0D0F8FEF7ECFC0023B4F93810B4F959
:103D10001C001A46FCF7FEFD0A2000F001FB761C91
:103D2000962EEDD30220287095ED020AF1EE400A9E
:103D3000C4ED0A0A84ED030AFEF7D2FC0023B4F9AD
:103D40003810B4F91C001A46FCF7E4FD32E000BF5D
:103D500000F0A8F8DFED500AC4ED0D0A9FED4F0A00
:103D6000444884ED060A94ED0C0ACC30FEF7F6FBCD
:103D7000BDEEC00A10EE100A2087D4ED060A94EDBD
:103D8000050A4748FEF7EAFBBDEEC00A00231A46C3
:103D900010EE100A00B2A083B4F93810FCF7BAFD97
:103DA000616800204881216A4881C5ED029A0A2095
:103DB00000F0B6FA2068807A0128C9D02068808A8D
:103DC000010653D5810512D568882D3081B26980EE
:103DD000494501D9A5F80290688842461168C86330
:103DE0002168898A0B0641D58905F7D43EE0410454
:103DF00013D568882D3880B26880FA2802D25046E0
:103E0000A5F802A081B242461068C1632068808A8A
:103E100003062BD54004F7D428E0010712D5A88863
:103E20002D3080B2A880484501D9A5F80490AA8811
:103E3000D8F800100A642068808A030616D50007A7
:103E4000F8D413E0800411D5A8882D3880B2A8805A
:103E5000FA2801D2A5F804A0AA88D8F800100A64AC
:103E60002068808A030601D58004F8D4012000F080
:103E700057FAD5E6700A00209A99993E3333AB4140
:103E8000000000004000002064030020FCA9F1D2E3
:103E90004D6250BF3333AB41CDCC4C3ECDCC4CBE4C
:103EA000840B00201C4810B5016AB1F90A200B8868
:103EB000C2EB42321A4400EE102AF8EEC00A9FED1F
:103EC000170A60EE800AC0ED0B0A4268B2F90A30A8
:103ED0001488C3EB4333234400EE903AF8EEE00A33
:103EE00020EE800A80ED040AB1F9021000EE101AEB
:103EF000F8EEC00A9FED0A0A60EE800AC0ED0C0AD7
:103F0000B2F9021000EE901AF8EEE00A20EE800AF4
:103F100080ED050A10BD0000700A00206992273864
:103F20000A01DA3910B510EE103A03608168C268F0
:103F300000EE101A00EE902A446830EE201A00EECF
:103F4000101AC0EE010A00EE104A20EE801A00EEB0
:103F5000101A00EE902A70EE201A00EE102AC0EE21
:103F6000210A00EE103A00EE801A11EE101A41609C
:103F700010BD10EE102AC260096881600021016046
:103F800041607047012131EE601A814070EE600A95
:103F9000491E00EE101AB8EEC00A20EE800AC0EEEC
:103FA000010ABDEEE00A10EE100A7047B4EEE00A16
:103FB000F1EE10FA02D2B0EE600A7047B4EEC10A18
:103FC000F1EE10FAF9DDB0EE410A704700F003009F
:103FD000024900EB400001EB8000704724050020FF
:103FE00000F00300034900EB400001EB8000483083
:103FF0007047000024050020024900EB400001EB5F
:1040000080007047240500200048704736090020D2
:1040100000282ED000219FED171A9FED170A00BF30
:1040200001EB810200EB82025368B3F9023000EE2B
:10403000903A01EBC10300EBC303F8EEE00A491C20
:10404000C9B2022960EE810AC2ED030AD3ED170A54
:1040500060EE800AC2ED020AE2D390ED030AD0EDD1
:10406000080A30EE600AF6EE000A20EE200A80ED23
:10407000330A70470A01DA3900007A4400280DD06B
:1040800002689FED110ADFED110A918A4B060CD5EB
:10409000CB0504D580ED040AC0ED090A7047490438
:1040A00003D500BFC0ED040A0AE0B2F906102829C2
:1040B000F0DC11F1280FF5DB9FED050A80ED040A15
:1040C00080ED090A70470000CDCC4C3ECDCC4CBEF3
:1040D000000000002DED028BC92000F037FD384DA7
:1040E000FFF792FFDFED378A9FED378A00242860C3
:1040F0002046FFF775FF04EB840105EB8101F0EE2C
:10410000680A486004EBC40005EBC000B0EE480A42
:104110002E4A00212C30FEF7B5FA641CE4B2022CC2
:10412000E6D32A499FED2A0A091F05F1BC00FFF7D3
:1041300020FFB7EE000A85ED350ABFEE000A85EDD7
:10414000360A2846FFF764FF1D48FFF761FF1C4849
:10415000FFF794FF1A4D002404EB840005EB800068
:10416000D0ED040A90ED030A04EBC40005EBC00097
:104170002C30FEF7F3F9641CE4B2022CECD30020DF
:1041800000EBC00105EBC10100EB800291ED130AC9
:1041900005EB8202401CBDEEC00AC0B2022810EE40
:1041A000101A9182ECD3064800231A46B0F9281061
:1041B000B0F91400FCF78AFB012000F0C7FCC3E74C
:1041C000940900200000FA4400007A468C50000850
:1041D0006F12833A002200B1012208210148FDF745
:1041E0009FB90000001C0240FDF7AEF9FEF7DEFAB1
:1041F000FEF7F8F8FEF788F8FEF732F9FEF770F9E7
:10420000FEF73EF8FEF75EF8FEF786F9FEF7ACFD26
:10421000FEF782FDFFF736FB00F06AF8FEF7A2F822
:1042200000F085F8FEE701460020842900D0C81C74
:10423000704700002DE9FC41B0EE413AF0EE602AF3
:1042400005460C461020B2EE091AFAEE090AFFF7ED
:1042500099FE07460C20B3EE0E1AFBEE0E0AB0EEE6
:10426000620AFFF78FFEDFED212A06460C209FED44
:104270001E1AF0EE620AB0EE430AFFF783FE034611
:104280000C20B1EE041AF0EE620AB0EE610AFFF7FC
:1042900079FE02460C20B2EE041AFAEE040AB0EEE1
:1042A000420AFFF76FFE390A8DF800108DF8017091
:1042B00031098DF80210310141EA13218DF8031004
:1042C0008DF8043011098DF80510110141EA102113
:1042D0008DF806108DF8070008236A462146284607
:1042E000FEF76EFDBDE8FC810000FA43000000000F
:1042F00010B586B0082000900120019002900220A5
:10430000064C039069462046FDF720F8002208215C
:104310002046FDF705F906B010BD0000001C024064
:1043200010B500B9012000F011FC002010BD10B53F
:1043300000F032FC002010BD7FB50D4604464169F7
:10434000B0F9080081B1A16971B1FFF76CFFD4E940
:1043500005128DE80700D4E900102B46226900F011
:104360002EFD039004B070BDFFF75DFF03A9CDE9FA
:104370000001208A2B4682B2D4E9001000F0F2FC42
:10438000012801D00020EDE70398EBE71CB510EE03
:10439000103A10EE902A8DF800301C0A8DF801407A
:1043A0001C0C8DF802401B0E8DF803308DF8042094
:1043B000130A8DF80530130C8DF80630120E01F536
:1043C00080718DF8072089B208236A46FEF7F8FC51
:1043D0001CBD00002DE9F041184C0F4605466669EA
:1043E0002068001D00F0EEFA38B9206890F82C1013
:1043F00001208840A1698143A161681C07D137B1C0
:104400002168BDE8F0410E48091D00F01FBB20687F
:104410003544B5424560216805D2A068BDE8F04149
:10442000091D00F0FBBA6068091D00F0F7FA206B67
:10443000854200D22563BDE8F081000058000020CD
:10444000141000202DE9F041054600F00BFB2E4C26
:104450002069401C206120682C4F10B1E06940B3F6
:104460002DE025602069012829D1002606EB860071
:1044700007EB800000F0C4FA761C072EF6D3234821
:104480008C3000F0BDFA2148A03000F0B9FA1F4886
:10449000B43000F0B5FA1D48C83000F0B1FA1B483E
:1044A000DC3000F0ADFA19488C3060601430A06048
:1044B00005E02068E96AC06A884200D82560E06AA1
:1044C000401CE062E96A0120A26988401043A061B3
:1044D00001EB810007EB8000291D00F0B7FA00F026
:1044E000E1FAE06900280CD02068E96AC06A8842D5
:1044F00007D207494FF080500860BFF34F8FBFF3DA
:104500006F8FBDE8F081000058000020380F0020B8
:1045100004ED00E010B5044690F8510058B10128B0
:104520000CD002280FD0502080F31188BFF34F8F9A
:10453000BFF36F8FFEE7206B00F0C8FA2046BDE89E
:10454000104000F0C3BA10BD10484FF4705142073C
:1045500006D0C01D0D4920F00700411AC1F5705169
:104560000B4A00230144C2E900030839103A21F044
:10457000070111604B600B600B1AC0E900139360D8
:104580004FF000405360D0607047000028100020BA
:10459000A4000020144E154CA6F1C8074FF0805817
:1045A000DFF84C9012E000BF00F05CFAF068C568DC
:1045B000281D00F007FA2069401E2061E068401EB7
:1045C000E06000F06FFA2846FFF7A4FFE0680028DB
:1045D000EAD138680128F9D9C9F80080BFF34F8FB4
:1045E000BFF36F8FF2E7000000100020580000209A
:1045F00004ED00E02DE9F0479A46DDE909848146A3
:104600006FF00303206B03EB82021044089E20F03E
:104610000707780707D0502080F31188BFF34F8F2A
:10462000BFF36F8FFEE7002561B1002023180A5CFD
:1046300083F834200A5C12B1401C1028F6D384F8A9
:10464000435001E084F83450072E00D30626E6627A
:10465000C4E91165201D00F0DEF904F1180000F036
:10466000DAF92461C6F107006462A061E56484F8A8
:10467000505052464946384600F0BEF82060B8F126
:10468000000F01D0C8F80040BDE8F08730B51149EF
:1046900000E011460A688242FBD34B685C188442F2
:1046A00003D1406818444860084643681C18944287
:1046B00009D1084C103C2468A24209D052681A441F
:1046C00042600A6812680260814200D0086030BD12
:1046D0000460F9E7A400002006484168096829B190
:1046E0004168C968C9684968016370474FF0FF3184
:1046F000FAE700005800002008484068401C4FF0CE
:10470000500080F3118804D0BFF34F8FBFF36F8F39
:10471000FEE7BFF34F8FBFF36F8FFEE7AC000020C3
:104720002DE9F0410546002700F06CFA314E306863
:1047300008B9FFF709FFF06805424BD1C5B308354A
:1047400068070ED005F00700C0F1080005446807AF
:1047500007D0502080F31188BFF34F8FBFF36F8FC6
:10476000FEE72DB37068854234D8224810300146E8
:104770000C6801E020460C466168A94202D221681B
:104780000029F7D131688C4224D007682168016084
:1047900060680837411B10290FD96019420708D0FB
:1047A000502080F31188BFF34F8FBFF36F8FFEE768
:1047B00010E041606560FFF769FF61687068401A4A
:1047C0007060B268904200D2B060F068014300208F
:1047D000C4E9000100F088FB780707D0502080F37F
:1047E0001188BFF34F8FBFF36F8FFEE73846BDE8E8
:1047F000F08100009400002010B5031F4FF080747A
:104800001C601B1F21F001011960191F044B0B6074
:1048100014390A60091F6FF0020244380A6010BDA3
:10482000F9460008F0B5002855D0002953D0027889
:10483000437842EA0322C2F30A020A80437884786A
:10484000DB0843EA4413C3F30A034B808478C5783A
:10485000A40944EA8504057944EA8524C4F30A04DA
:104860008C80057946796D0845EAC615C5F30A05B9
:10487000CD804679C6F301168E724679B609CE729E
:104880008679C77946EA07268E81067A477A46EA0C
:104890000726CE81867AC77A46EA07260E82067BED
:1048A0008E74467BCE74867BC77B46EA07268E8253
:1048B000067C407CA2F580620A80A3F580634B8071
:1048C000A4F5806446EA00208C80A5F58065CD8043
:1048D000A0F580600881F0BD10B5014612220448A1
:1048E000FBF7FFFCBDE810401221014800F024B89E
:1048F0002409002008B510EE102A01F500718DF88A
:104900000020130A8DF80130130C8DF80230120EBE
:104910008DF8032089B204236A46FEF751FA08BDD8
:10492000044900EBC00001EB8000C07CC0F34010E4
:10493000704700005C0C002070B5154A13681C68B5
:1049400024F001041C6013681C68E407F7D1114EC1
:104950004FF00064B34202D90E4D4C3D04E00E4DC1
:10496000AB4203D90B4D503D2C6008E00A4E0A4D76
:10497000603EB83DB34201D9EC6000E0AC60D86065
:10498000106841601068016841F00101016070BD6C
:104990008404002058640240B860024001EE100A0E
:1049A00070EEC00A0120B8EEC11A8840401E21EE08
:1049B000201A00EE900AF8EEE01AC1EE210A30EE5D
:1049C000800A7047D0E9013201699A60D0E9012379
:1049D0005A604A68824201D182684A6000220261BC
:1049E0000868401E0860086870470000034B0360B9
:1049F00003F154000860802010607047100100200F
:104A000000F108014FF0FF32C0E90112C1600161FD
:104A100000210160704700210161704730B50B68CB
:104A20005A1C02D000F1080202E0026904E02246AA
:104A3000546825689D42FAD953684B6099608A6032
:104A4000516008610168491C016030BD42684A60DC
:104A500093688B6093685960916008610168491C94
:104A600001607047502080F31188BFF34F8FBFF370
:104A70006F8F0A494868401C486001280CD10848DB
:104A8000006810F0FF0F07D0502080F31188BFF3AB
:104A90004F8FBFF36F8FFEE770470000AC00002020
:104AA00004ED00E00849486828B1401E486001D183
:104AB00080F311887047502080F31188BFF34F8F27
:104AC000BFF36F8FFEE70000AC00002070B5002838
:104AD00027D0144DA0F108046168E868014207D1AD
:104AE000502080F31188BFF34F8FBFF36F8FFEE725
:104AF00022683AB1502080F31188BFF34F8FBFF383
:104B00006F8FFEE78143616000F07CF86068696840
:104B1000084468602046FFF7B9FDBDE8704000F02A
:104B2000E3B970BD940000204FF0E0200021016146
:104B3000816105494FF47A720968B1FBF2F1491EAF
:104B400041610721016170472000002010B502007B
:104B500014D00F48806B38B1502080F31188BFF318
:104B60004F8FBFF36F8FFEE700F04CF80021104627
:104B7000FFF730FC00F0B8F9002807D105494FF0E5
:104B800080500860BFF34F8FBFF36F8F10BD0000E0
:104B90005800002004ED00E010B586B00024039416
:104BA00005AA04A903A80494FFF720FFDDE9030187
:104BB0000094CDE9011000230EA11048059A00F0E1
:104BC000FEF80F490028486311D0502080F3118867
:104BD000BFF34F8FBFF36F8F4FF0FF30086301209B
:104BE000C8614C6106B0BDE8104000F041B806B0A5
:104BF00010BD000049444C450000000095450008E8
:104C0000580000200248816B491C816370470000F6
:104C1000580000201448816B11B101214162704796
:104C2000002141628169B1FA81F1C1F11F0101EBFB
:104C300081020E4951F822306BB101EB820101F182
:104C400008034A6852684A609A4201D152684A6031
:104C5000D16801607047502080F31188BFF34F8FF7
:104C6000BFF36F8FFEE7000058000020380F0020D0
:104C70001CB537480168374A914207D1502080F36C
:104C80001188BFF34F8FBFF36F8FFEE70068314984
:104C9000491E884207D1502080F31188BFF34F8FFF
:104CA000BFF36F8FFEE72C4908780190FF20087052
:104CB00008788DF800009DF800009DF8002000F0B5
:104CC000F000904207D0502080F31188BFF34F8F3F
:104CD000BFF36F8FFEE79DF80000204B00F05000FF
:104CE00018700720986005E09DF8002052008DF8AC
:104CF0000020401E9DF800201206F5D4986003287D
:104D000007D0502080F31188BFF34F8FBFF36F8F10
:104D1000FEE74FF440709860019808700C4820300E
:104D2000016841F470010160016841F07041016067
:104D3000FFF7FAFE00205860FBF754FA08480168B4
:104D400041F040410160FBF739FA00201CBD000032
:104D500000ED00E071C20F4100E400E0AC00002073
:104D600034EF00E02DE9FF5F8346DDE90E879946C9
:104D700016468A469000FFF7D3FC05001CD054204D
:104D8000FFF7CEFC040014D00020256384F8510006
:104D9000CDE90240CDE900874B46324651465846A0
:104DA000FFF728FC2046FFF74DFB012004B0BDE8CB
:104DB000F09F2846FFF78AFE4FF0FF30F6E7F0B588
:104DC00085B0DDE90B640A9DA6B1DCB154270097DC
:104DD0002663022684F85160002604AFCDE902461E
:104DE000CDE90057FFF706FC2046FFF72BFB0498A0
:104DF00005B0F0BD502080F31188BFF34F8FBFF393
:104E00006F8FFEE7502080F31188BFF34F8FBFF301
:104E10006F8FFEE70148406970470000580000208E
:104E20002DE9F0412E4C0027A06B40B1206A401CB8
:104E30002062606A00B101273846BDE8F0816669EA
:104E4000761C666113D16068006838B1502080F329
:104E50001188BFF34F8FBFF36F8FFEE76068A168C3
:104E60006160A060A06A401CA062FFF735FC206B67
:104E7000DFF87080864209D36068006880B160689E
:104E8000C068C568686886420DD220632068C06A21
:104E900000EB800158F821000128CAD90127C8E792
:104EA0004FF0FF30F1E7281DFFF78CFDA86A18B11D
:104EB00005F11800FFF786FDE86A0121A26981402B
:104EC0001143A16100EB800108EB8100291DFFF770
:104ED000BDFDE86A2168C96A8842CDD30127CBE7C6
:104EE00058000020380F00202DE9F0472C4D0024F9
:104EF0002746A86B38B1FFF7B5FDA86B401EA86325
:104F0000A86B40B146E0502080F31188BFF34F8F6B
:104F1000BFF36F8FFEE72969224E0120D1B3A6F1BE
:104F2000B40980463068E8B1F068C46804F118003C
:104F3000FFF748FD201DFFF745FDE06AAA6908FA62
:104F400000F11143A96100EB800109EB8100211DF3
:104F5000FFF77CFDE06A2968C96A8842E2D3C5F898
:104F60002480DFE70CB1FFF7B7FB2C6A44B146465B
:104F7000FFF756FF00B16E62641EF9D1002028626F
:104F8000686A38B10849012738070860BFF34F8FB6
:104F9000BFF36F8FFFF786FD3846BDE8F08700004E
:104FA00058000020EC0F002004ED00E0EC50000859
:104FB00079270008000000000000000080000000C9
:104FC0000000000000000000E05000080534000868
:104FD0000100000000000000BC0200000000000012
:104FE00000000000D4500008ED3B00080100000064
:104FF00000000000BC0200000000000000000000F3
:10500000BC500008D540000802000000000000006D
:10501000000400000000000000000000C85000086C
:10502000CD35000801000000000000000004000071
:105030000000000000000000000610160006101618
:105040000000000000000000010203040607080938
:105050000000000001020304ABAA2A3EABAA2A3ECC
:10506000ABAAAA3E00606A460000484200004842DF
:10507000000080400000000000000000CDCCCC3ECD
:105080006F12833A3333333FABAA2A3E00401C46AB
:105090000000964300409C45000010410000803F06
:1050A000000000000080BB44000000000000000081
:1050B00000803B46000096430080BB4567696D62F7
:1050C000616C5461736B000064616D69616F546160
:1050D000736B0000656E67696E65725461736B0077
:1050E000436861737369735461736B0064656661CF
:1050F000756C745461736B00185100080000002037
:10510000C00000004A2D0008D8510008C00000204F
:10511000686B00005A2D000800000000000000002D
:10512000000000000000000000000000010000007E
:1051300010000000000000000024F4000000000047
:10514000000000000000000000000000000000005F
:1051500000000000000100000000AE018403000018
:10516000000000000000000000000000000000003F
:10517000000000000000000000000000000000002F
:10518000000000000000000000000000000000001F
:10519000000000000000000000000000000000000F
:1051A00000000000000000000000000000000000FF
:1051B00000000000000000000000000000000000EF
:1051C0000000000000000000AAAAAAAA0000000037
:0851D0000000000000000000D7
:040000050800018965
:00000001FF
